{
  "contractName": "TodoContract",
  "abi": [
    {
      "anonymous": false,
      "inputs": [
        {
          "indexed": false,
          "internalType": "string",
          "name": "task",
          "type": "string"
        },
        {
          "indexed": false,
          "internalType": "uint256",
          "name": "taskNumber",
          "type": "uint256"
        }
      ],
      "name": "TaskCreated",
      "type": "event"
    },
    {
      "anonymous": false,
      "inputs": [
        {
          "indexed": false,
          "internalType": "uint256",
          "name": "taskNumber",
          "type": "uint256"
        }
      ],
      "name": "TaskDeleted",
      "type": "event"
    },
    {
      "anonymous": false,
      "inputs": [
        {
          "indexed": false,
          "internalType": "string",
          "name": "task",
          "type": "string"
        },
        {
          "indexed": false,
          "internalType": "uint256",
          "name": "taskId",
          "type": "uint256"
        },
        {
          "indexed": false,
          "internalType": "bool",
          "name": "isComplete",
          "type": "bool"
        }
      ],
      "name": "TaskIsCompleteToggled",
      "type": "event"
    },
    {
      "anonymous": false,
      "inputs": [
        {
          "indexed": false,
          "internalType": "string",
          "name": "task",
          "type": "string"
        },
        {
          "indexed": false,
          "internalType": "uint256",
          "name": "taskId",
          "type": "uint256"
        }
      ],
      "name": "TaskUpdated",
      "type": "event"
    },
    {
      "inputs": [],
      "name": "taskCount",
      "outputs": [
        {
          "internalType": "uint256",
          "name": "",
          "type": "uint256"
        }
      ],
      "stateMutability": "view",
      "type": "function",
      "constant": true
    },
    {
      "inputs": [
        {
          "internalType": "uint256",
          "name": "",
          "type": "uint256"
        }
      ],
      "name": "todos",
      "outputs": [
        {
          "internalType": "uint256",
          "name": "index",
          "type": "uint256"
        },
        {
          "internalType": "string",
          "name": "taskName",
          "type": "string"
        },
        {
          "internalType": "bool",
          "name": "isComplete",
          "type": "bool"
        }
      ],
      "stateMutability": "view",
      "type": "function",
      "constant": true
    }
  ],
  "bytecode": "0x60806040526000805534801561001457600080fd5b50610361806100246000396000f3fe608060405234801561001057600080fd5b50600436106100365760003560e01c8063b6cb58a51461003b578063bc8bc2b414610059575b600080fd5b61004361008b565b6040516100509190610169565b60405180910390f35b610073600480360381019061006e91906101b5565b610091565b6040516100829392919061028d565b60405180910390f35b60005481565b60016020528060005260406000206000915090508060000154908060010180546100ba906102fa565b80601f01602080910402602001604051908101604052809291908181526020018280546100e6906102fa565b80156101335780601f1061010857610100808354040283529160200191610133565b820191906000526020600020905b81548152906001019060200180831161011657829003601f168201915b5050505050908060020160009054906101000a900460ff16905083565b6000819050919050565b61016381610150565b82525050565b600060208201905061017e600083018461015a565b92915050565b600080fd5b61019281610150565b811461019d57600080fd5b50565b6000813590506101af81610189565b92915050565b6000602082840312156101cb576101ca610184565b5b60006101d9848285016101a0565b91505092915050565b600081519050919050565b600082825260208201905092915050565b60005b8381101561021c578082015181840152602081019050610201565b60008484015250505050565b6000601f19601f8301169050919050565b6000610244826101e2565b61024e81856101ed565b935061025e8185602086016101fe565b61026781610228565b840191505092915050565b60008115159050919050565b61028781610272565b82525050565b60006060820190506102a2600083018661015a565b81810360208301526102b48185610239565b90506102c3604083018461027e565b949350505050565b7f4e487b7100000000000000000000000000000000000000000000000000000000600052602260045260246000fd5b6000600282049050600182168061031257607f821691505b602082108103610325576103246102cb565b5b5091905056fea2646970667358221220ca02a946622413eaf4f70f245a3ff3bef6a74a1ec600f2f4dbea2e44cd2df4bf64736f6c63430008100033",
  "immutableReferences": {},
  "source": "// TodoContract.sol\n// SPDX-License-Identifier: GPL-3.0\npragma solidity ^0.8.9;\n\ncontract TodoContract {\n    uint256 public taskCount = 0;\n\n    struct Task {\n        uint256 index;\n        string taskName;\n        bool isComplete;\n    }\n\n    mapping(uint256 => Task) public todos;\n    //1.to-do\n    event TaskCreated(string task, uint256 taskNumber);\n    //2.to-do\n    event TaskUpdated(string task, uint256 taskId);\n    //3.to-do\n    event TaskIsCompleteToggled(string task, uint256 taskId, bool isComplete);\n    //4.to-do\n    event TaskDeleted(uint256 taskNumber);\n}\n",
  "sourcePath": "/home/ocean/todo-dApp/todo-dApp-contract/contracts/TodoContract.sol",
  "compiler": {
    "name": "solc",
    "version": "0.8.16+commit.07a7930e.Emscripten.clang"
  },
  "schemaVersion": "3.4.9",
  "updatedAt": "2022-08-13T12:24:53.851Z",
  "networkType": "ethereum",
  "devdoc": {
    "kind": "dev",
    "methods": {},
    "version": 1
  },
  "userdoc": {
    "kind": "user",
    "methods": {},
    "version": 1
  }
}